{
  "_format": "hh3-artifact-1",
  "contractName": "PredictionMarket",
  "sourceName": "contracts/PredictionMarket.sol",
  "abi": [
    {
      "anonymous": false,
      "inputs": [
        {
          "indexed": false,
          "internalType": "string",
          "name": "marketId",
          "type": "string"
        },
        {
          "indexed": true,
          "internalType": "address",
          "name": "bettor",
          "type": "address"
        },
        {
          "indexed": false,
          "internalType": "bool",
          "name": "yes",
          "type": "bool"
        },
        {
          "indexed": false,
          "internalType": "uint256",
          "name": "amount",
          "type": "uint256"
        }
      ],
      "name": "BetPlaced",
      "type": "event"
    },
    {
      "anonymous": false,
      "inputs": [
        {
          "indexed": false,
          "internalType": "string",
          "name": "marketId",
          "type": "string"
        },
        {
          "indexed": true,
          "internalType": "address",
          "name": "bettor",
          "type": "address"
        },
        {
          "indexed": false,
          "internalType": "uint256",
          "name": "payout",
          "type": "uint256"
        }
      ],
      "name": "Claimed",
      "type": "event"
    },
    {
      "anonymous": false,
      "inputs": [
        {
          "indexed": false,
          "internalType": "string",
          "name": "marketId",
          "type": "string"
        },
        {
          "indexed": false,
          "internalType": "enum PredictionMarket.Outcome",
          "name": "outcome",
          "type": "uint8"
        }
      ],
      "name": "MarketResolved",
      "type": "event"
    },
    {
      "inputs": [],
      "name": "WLD",
      "outputs": [
        {
          "internalType": "contract IERC20",
          "name": "",
          "type": "address"
        }
      ],
      "stateMutability": "view",
      "type": "function"
    },
    {
      "inputs": [
        {
          "internalType": "string",
          "name": "marketId",
          "type": "string"
        },
        {
          "internalType": "bool",
          "name": "yes",
          "type": "bool"
        },
        {
          "internalType": "uint256",
          "name": "amount",
          "type": "uint256"
        }
      ],
      "name": "bet",
      "outputs": [],
      "stateMutability": "nonpayable",
      "type": "function"
    },
    {
      "inputs": [
        {
          "internalType": "string",
          "name": "marketId",
          "type": "string"
        }
      ],
      "name": "claim",
      "outputs": [],
      "stateMutability": "nonpayable",
      "type": "function"
    },
    {
      "inputs": [
        {
          "internalType": "bytes32",
          "name": "",
          "type": "bytes32"
        },
        {
          "internalType": "address",
          "name": "",
          "type": "address"
        }
      ],
      "name": "claimed",
      "outputs": [
        {
          "internalType": "bool",
          "name": "",
          "type": "bool"
        }
      ],
      "stateMutability": "view",
      "type": "function"
    },
    {
      "inputs": [
        {
          "internalType": "string",
          "name": "marketId",
          "type": "string"
        }
      ],
      "name": "getPool",
      "outputs": [
        {
          "internalType": "uint256",
          "name": "yesPool",
          "type": "uint256"
        },
        {
          "internalType": "uint256",
          "name": "noPool",
          "type": "uint256"
        },
        {
          "internalType": "bool",
          "name": "resolved",
          "type": "bool"
        },
        {
          "internalType": "enum PredictionMarket.Outcome",
          "name": "outcome",
          "type": "uint8"
        }
      ],
      "stateMutability": "view",
      "type": "function"
    },
    {
      "inputs": [
        {
          "internalType": "string",
          "name": "marketId",
          "type": "string"
        },
        {
          "internalType": "address",
          "name": "bettor",
          "type": "address"
        }
      ],
      "name": "getPosition",
      "outputs": [
        {
          "internalType": "uint256",
          "name": "yesAmt",
          "type": "uint256"
        },
        {
          "internalType": "uint256",
          "name": "noAmt",
          "type": "uint256"
        },
        {
          "internalType": "bool",
          "name": "hasClaimed",
          "type": "bool"
        }
      ],
      "stateMutability": "view",
      "type": "function"
    },
    {
      "inputs": [
        {
          "internalType": "bytes32",
          "name": "",
          "type": "bytes32"
        },
        {
          "internalType": "address",
          "name": "",
          "type": "address"
        }
      ],
      "name": "noBets",
      "outputs": [
        {
          "internalType": "uint256",
          "name": "",
          "type": "uint256"
        }
      ],
      "stateMutability": "view",
      "type": "function"
    },
    {
      "inputs": [
        {
          "internalType": "bytes32",
          "name": "",
          "type": "bytes32"
        }
      ],
      "name": "pools",
      "outputs": [
        {
          "internalType": "uint256",
          "name": "yesPool",
          "type": "uint256"
        },
        {
          "internalType": "uint256",
          "name": "noPool",
          "type": "uint256"
        },
        {
          "internalType": "enum PredictionMarket.Outcome",
          "name": "outcome",
          "type": "uint8"
        },
        {
          "internalType": "bool",
          "name": "resolved",
          "type": "bool"
        }
      ],
      "stateMutability": "view",
      "type": "function"
    },
    {
      "inputs": [
        {
          "internalType": "string",
          "name": "marketId",
          "type": "string"
        },
        {
          "internalType": "enum PredictionMarket.Outcome",
          "name": "outcome",
          "type": "uint8"
        }
      ],
      "name": "resolve",
      "outputs": [],
      "stateMutability": "nonpayable",
      "type": "function"
    },
    {
      "inputs": [
        {
          "internalType": "bytes32",
          "name": "",
          "type": "bytes32"
        },
        {
          "internalType": "address",
          "name": "",
          "type": "address"
        }
      ],
      "name": "yesBets",
      "outputs": [
        {
          "internalType": "uint256",
          "name": "",
          "type": "uint256"
        }
      ],
      "stateMutability": "view",
      "type": "function"
    }
  ],
  "bytecode": "0x60808060405234601557610b1f908161001a8239f35b5f80fdfe6080806040526004361015610012575f80fd5b5f3560e01c90816311699019146107b45750806341d7b026146107145780634425140a146106d057806364c61487146105645780637d26eef914610496578063b5217bb41461043f578063d9c4832e146103fb578063de061d66146103cd578063dfcae622146103845763f3fe12c91461008a575f80fd5b346103805760203660031901126103805760043567ffffffffffffffff8111610380576100bb9036906004016109df565b906040516020810190838383376100e56020828681015f838201520301601f198101835282610a30565b519020805f525f60205260405f20906002820160ff815460081c161561034c575f82815260036020908152604080832033845290915290205460ff1661031d575f828152600360208181526040808420338552909152909120805460ff19166001179055905460ff1690811015610309576001149081156102ea575f908152600160209081526040808320338452909152902054905b81156102b257156102a45761019a8254925b6001815491015490610abc565b8082029182040361029057811561027c5704916040519163a9059cbb60e01b83523360048401528360248401526020836044815f732cfc85d8e48f8eab294be644d9e25c30308630035af190811561027157610222610234927f7ca58b3d3af286614421364e3dc07e3961a7ce97c19ab3be45fdc2ad13d0b97d955f91610242575b50610a7e565b60405192604084526040840191610ac9565b9260208201528033930390a2005b610264915060203d60201161026a575b61025c8183610a30565b810190610a66565b5f61021c565b503d610252565b6040513d5f823e3d90fd5b634e487b7160e01b5f52601260045260245ffd5b634e487b7160e01b5f52601160045260245ffd5b61019a60018301549261018d565b60405162461bcd60e51b815260206004820152601060248201526f6e6f7468696e6720746f20636c61696d60801b6044820152606490fd5b5f9081526002602090815260408083203384529091529020549061017b565b634e487b7160e01b5f52602160045260245ffd5b60405162461bcd60e51b815260206004820152600760248201526618db185a5b595960ca1b6044820152606490fd5b60405162461bcd60e51b815260206004820152600c60248201526b1b9bdd081c995cdbdb1d995960a21b6044820152606490fd5b5f80fd5b346103805760403660031901126103805761039d610a1a565b6004355f52600360205260405f209060018060a01b03165f52602052602060ff60405f2054166040519015158152f35b34610380575f366003190112610380576020604051732cfc85d8e48f8eab294be644d9e25c30308630038152f35b3461038057604036600319011261038057610414610a1a565b6004355f52600160205260405f209060018060a01b03165f52602052602060405f2054604051908152f35b34610380576020366003190112610380576004355f525f602052608060405f2060ff8154916002600182015491015490604051938452602084015261048960408401838316610a0d565b60081c1615156060820152f35b346103805760403660031901126103805760043567ffffffffffffffff8111610380576104c960609136906004016109df565b906104d2610a1a565b916104fa602060405183819483830196873781015f838201520301601f198101835282610a30565b5190205f8181526001602090815260408083206001600160a01b0395909516808452948252808320548484526002835281842086855283528184205494845260038352818420958452948252918290205482519485529084019290925260ff909116151590820152f35b346103805760403660031901126103805760043567ffffffffffffffff8111610380576105959036906004016109df565b90602435916003831015610380576040516020810190828483376105cc6020828581015f838201520301601f198101835282610a30565b5190205f525f602052600260405f20019283549360ff8560081c16610698575f60018314801561068c575b1561065d57610309576101007f9dc5f3aa979166e3973169ba85cc4aff965cdd42156ea7225eb4b13cf11dd14c9560ff84169061ffff19161717905561065861064d604051948594604086526040860191610ac9565b916020840190610a0d565b0390a1005b60405162461bcd60e51b81526020600482015260076024820152661a5b9d985b1a5960ca1b6044820152606490fd5b50505f600283146105f7565b60405162461bcd60e51b815260206004820152601060248201526f185b1c9958591e481c995cdbdb1d995960821b6044820152606490fd5b34610380576040366003190112610380576106e9610a1a565b6004355f52600260205260405f209060018060a01b03165f52602052602060405f2054604051908152f35b346103805760203660031901126103805760043567ffffffffffffffff8111610380576107459036906004016109df565b61076c602060405183819483830196873781015f838201520301601f198101835282610a30565b5190205f525f602052608060405f206107b28154916002600182015491015490604051938452602084015260ff8160081c161515604084015260ff606084019116610a0d565bf35b346103805760603660031901126103805760043567ffffffffffffffff8111610380576107e59036906004016109df565b6024359283151593848103610380576044359182156109b157506040516323b872dd60e01b8152336004820152306024820152604481018390526020816064815f732cfc85d8e48f8eab294be644d9e25c30308630035af1801561027157610853915f916109925750610a7e565b60405160208101908486833761087c6020828781015f838201520301601f198101835282610a30565b51902093845f525f60205260405f209460ff600287015460081c16610962577ff1b5b55d4eb3da18fbbffc43e6e34b06f94fcb6316aead707ad556bf22aee40c956109109315610923576108d1858254610abc565b90555f52600160205260405f2060018060a01b0333165f5260205260405f206108fb848254610abc565b90555b60405193606085526060850191610ac9565b93602083015260408201528033930390a2005b600101610931858254610abc565b90555f52600260205260405f2060018060a01b0333165f5260205260405f2061095b848254610abc565b90556108fe565b60405162461bcd60e51b81526020600482015260086024820152671c995cdbdb1d995960c21b6044820152606490fd5b6109ab915060203d60201161026a5761025c8183610a30565b8761021c565b62461bcd60e51b81526020600482015260096024820152681b9bc8185b5bdd5b9d60ba1b6044820152606490fd5b9181601f840112156103805782359167ffffffffffffffff8311610380576020838186019501011161038057565b9060038210156103095752565b602435906001600160a01b038216820361038057565b90601f8019910116810190811067ffffffffffffffff821117610a5257604052565b634e487b7160e01b5f52604160045260245ffd5b90816020910312610380575180151581036103805790565b15610a8557565b60405162461bcd60e51b815260206004820152600f60248201526e1d1c985b9cd9995c8819985a5b1959608a1b6044820152606490fd5b9190820180921161029057565b908060209392818452848401375f828201840152601f01601f191601019056fea26469706673582212205f2ce229f1cdc838248c6277b86f1aa1403d82d9c9fc29a94d8e1766c49c531664736f6c634300081c0033",
  "linkReferences": {},
  "deployedLinkReferences": {},
  "immutableReferences": {},
  "inputSourceName": "project/contracts/PredictionMarket.sol",
  "buildInfoId": "solc-0_8_28-95646e995255a3dbd6991ef8933eff579dec0791"
}